{
  "_format": "hh-sol-artifact-1",
  "contractName": "BorrowYourCar",
  "sourceName": "contracts/BorrowYourCar.sol",
  "abi": [
    {
      "inputs": [
        {
          "internalType": "address",
          "name": "_tokenAddress",
          "type": "address"
        }
      ],
      "stateMutability": "nonpayable",
      "type": "constructor"
    },
    {
      "anonymous": false,
      "inputs": [
        {
          "indexed": true,
          "internalType": "address",
          "name": "owner",
          "type": "address"
        },
        {
          "indexed": true,
          "internalType": "address",
          "name": "approved",
          "type": "address"
        },
        {
          "indexed": true,
          "internalType": "uint256",
          "name": "tokenId",
          "type": "uint256"
        }
      ],
      "name": "Approval",
      "type": "event"
    },
    {
      "anonymous": false,
      "inputs": [
        {
          "indexed": true,
          "internalType": "address",
          "name": "owner",
          "type": "address"
        },
        {
          "indexed": true,
          "internalType": "address",
          "name": "operator",
          "type": "address"
        },
        {
          "indexed": false,
          "internalType": "bool",
          "name": "approved",
          "type": "bool"
        }
      ],
      "name": "ApprovalForAll",
      "type": "event"
    },
    {
      "anonymous": false,
      "inputs": [
        {
          "indexed": false,
          "internalType": "uint256",
          "name": "carTokenId",
          "type": "uint256"
        },
        {
          "indexed": false,
          "internalType": "address",
          "name": "borrower",
          "type": "address"
        },
        {
          "indexed": false,
          "internalType": "uint256",
          "name": "startTime",
          "type": "uint256"
        },
        {
          "indexed": false,
          "internalType": "uint256",
          "name": "duration",
          "type": "uint256"
        }
      ],
      "name": "CarBorrowed",
      "type": "event"
    },
    {
      "anonymous": false,
      "inputs": [
        {
          "indexed": true,
          "internalType": "address",
          "name": "previousOwner",
          "type": "address"
        },
        {
          "indexed": true,
          "internalType": "address",
          "name": "newOwner",
          "type": "address"
        }
      ],
      "name": "OwnershipTransferred",
      "type": "event"
    },
    {
      "anonymous": false,
      "inputs": [
        {
          "indexed": true,
          "internalType": "address",
          "name": "from",
          "type": "address"
        },
        {
          "indexed": true,
          "internalType": "address",
          "name": "to",
          "type": "address"
        },
        {
          "indexed": true,
          "internalType": "uint256",
          "name": "tokenId",
          "type": "uint256"
        }
      ],
      "name": "Transfer",
      "type": "event"
    },
    {
      "inputs": [
        {
          "internalType": "address",
          "name": "to",
          "type": "address"
        },
        {
          "internalType": "uint256",
          "name": "tokenId",
          "type": "uint256"
        }
      ],
      "name": "approve",
      "outputs": [],
      "stateMutability": "nonpayable",
      "type": "function"
    },
    {
      "inputs": [
        {
          "internalType": "address",
          "name": "owner",
          "type": "address"
        }
      ],
      "name": "balanceOf",
      "outputs": [
        {
          "internalType": "uint256",
          "name": "",
          "type": "uint256"
        }
      ],
      "stateMutability": "view",
      "type": "function"
    },
    {
      "inputs": [
        {
          "internalType": "uint256",
          "name": "carTokenId",
          "type": "uint256"
        },
        {
          "internalType": "uint256",
          "name": "duration",
          "type": "uint256"
        }
      ],
      "name": "borrowCar",
      "outputs": [],
      "stateMutability": "nonpayable",
      "type": "function"
    },
    {
      "inputs": [
        {
          "internalType": "uint256",
          "name": "",
          "type": "uint256"
        }
      ],
      "name": "cars",
      "outputs": [
        {
          "internalType": "address",
          "name": "owner",
          "type": "address"
        },
        {
          "internalType": "address",
          "name": "borrower",
          "type": "address"
        },
        {
          "internalType": "uint256",
          "name": "borrowUntil",
          "type": "uint256"
        }
      ],
      "stateMutability": "view",
      "type": "function"
    },
    {
      "inputs": [],
      "name": "distributeCar",
      "outputs": [],
      "stateMutability": "nonpayable",
      "type": "function"
    },
    {
      "inputs": [
        {
          "internalType": "uint256",
          "name": "tokenId",
          "type": "uint256"
        }
      ],
      "name": "getApproved",
      "outputs": [
        {
          "internalType": "address",
          "name": "",
          "type": "address"
        }
      ],
      "stateMutability": "view",
      "type": "function"
    },
    {
      "inputs": [],
      "name": "getAvailableCars",
      "outputs": [
        {
          "internalType": "uint256[]",
          "name": "",
          "type": "uint256[]"
        }
      ],
      "stateMutability": "view",
      "type": "function"
    },
    {
      "inputs": [
        {
          "internalType": "uint256",
          "name": "carTokenId",
          "type": "uint256"
        }
      ],
      "name": "getCarInfo",
      "outputs": [
        {
          "internalType": "address",
          "name": "owner",
          "type": "address"
        },
        {
          "internalType": "address",
          "name": "currentBorrower",
          "type": "address"
        },
        {
          "internalType": "uint256",
          "name": "borrowUntil",
          "type": "uint256"
        }
      ],
      "stateMutability": "view",
      "type": "function"
    },
    {
      "inputs": [],
      "name": "getOwnedCars",
      "outputs": [
        {
          "internalType": "uint256[]",
          "name": "",
          "type": "uint256[]"
        }
      ],
      "stateMutability": "view",
      "type": "function"
    },
    {
      "inputs": [
        {
          "internalType": "address",
          "name": "owner",
          "type": "address"
        },
        {
          "internalType": "address",
          "name": "operator",
          "type": "address"
        }
      ],
      "name": "isApprovedForAll",
      "outputs": [
        {
          "internalType": "bool",
          "name": "",
          "type": "bool"
        }
      ],
      "stateMutability": "view",
      "type": "function"
    },
    {
      "inputs": [],
      "name": "name",
      "outputs": [
        {
          "internalType": "string",
          "name": "",
          "type": "string"
        }
      ],
      "stateMutability": "view",
      "type": "function"
    },
    {
      "inputs": [],
      "name": "owner",
      "outputs": [
        {
          "internalType": "address",
          "name": "",
          "type": "address"
        }
      ],
      "stateMutability": "view",
      "type": "function"
    },
    {
      "inputs": [
        {
          "internalType": "uint256",
          "name": "tokenId",
          "type": "uint256"
        }
      ],
      "name": "ownerOf",
      "outputs": [
        {
          "internalType": "address",
          "name": "",
          "type": "address"
        }
      ],
      "stateMutability": "view",
      "type": "function"
    },
    {
      "inputs": [],
      "name": "renounceOwnership",
      "outputs": [],
      "stateMutability": "nonpayable",
      "type": "function"
    },
    {
      "inputs": [
        {
          "internalType": "address",
          "name": "from",
          "type": "address"
        },
        {
          "internalType": "address",
          "name": "to",
          "type": "address"
        },
        {
          "internalType": "uint256",
          "name": "tokenId",
          "type": "uint256"
        }
      ],
      "name": "safeTransferFrom",
      "outputs": [],
      "stateMutability": "nonpayable",
      "type": "function"
    },
    {
      "inputs": [
        {
          "internalType": "address",
          "name": "from",
          "type": "address"
        },
        {
          "internalType": "address",
          "name": "to",
          "type": "address"
        },
        {
          "internalType": "uint256",
          "name": "tokenId",
          "type": "uint256"
        },
        {
          "internalType": "bytes",
          "name": "data",
          "type": "bytes"
        }
      ],
      "name": "safeTransferFrom",
      "outputs": [],
      "stateMutability": "nonpayable",
      "type": "function"
    },
    {
      "inputs": [
        {
          "internalType": "address",
          "name": "operator",
          "type": "address"
        },
        {
          "internalType": "bool",
          "name": "approved",
          "type": "bool"
        }
      ],
      "name": "setApprovalForAll",
      "outputs": [],
      "stateMutability": "nonpayable",
      "type": "function"
    },
    {
      "inputs": [
        {
          "internalType": "bytes4",
          "name": "interfaceId",
          "type": "bytes4"
        }
      ],
      "name": "supportsInterface",
      "outputs": [
        {
          "internalType": "bool",
          "name": "",
          "type": "bool"
        }
      ],
      "stateMutability": "view",
      "type": "function"
    },
    {
      "inputs": [],
      "name": "symbol",
      "outputs": [
        {
          "internalType": "string",
          "name": "",
          "type": "string"
        }
      ],
      "stateMutability": "view",
      "type": "function"
    },
    {
      "inputs": [],
      "name": "token",
      "outputs": [
        {
          "internalType": "contract MyERC20",
          "name": "",
          "type": "address"
        }
      ],
      "stateMutability": "view",
      "type": "function"
    },
    {
      "inputs": [
        {
          "internalType": "uint256",
          "name": "tokenId",
          "type": "uint256"
        }
      ],
      "name": "tokenURI",
      "outputs": [
        {
          "internalType": "string",
          "name": "",
          "type": "string"
        }
      ],
      "stateMutability": "view",
      "type": "function"
    },
    {
      "inputs": [],
      "name": "totalCars",
      "outputs": [
        {
          "internalType": "uint256",
          "name": "",
          "type": "uint256"
        }
      ],
      "stateMutability": "view",
      "type": "function"
    },
    {
      "inputs": [
        {
          "internalType": "address",
          "name": "from",
          "type": "address"
        },
        {
          "internalType": "address",
          "name": "to",
          "type": "address"
        },
        {
          "internalType": "uint256",
          "name": "tokenId",
          "type": "uint256"
        }
      ],
      "name": "transferFrom",
      "outputs": [],
      "stateMutability": "nonpayable",
      "type": "function"
    },
    {
      "inputs": [
        {
          "internalType": "address",
          "name": "newOwner",
          "type": "address"
        }
      ],
      "name": "transferOwnership",
      "outputs": [],
      "stateMutability": "nonpayable",
      "type": "function"
    },
    {
      "inputs": [
        {
          "internalType": "address",
          "name": "",
          "type": "address"
        },
        {
          "internalType": "uint256",
          "name": "",
          "type": "uint256"
        }
      ],
      "name": "userOwnedCars",
      "outputs": [
        {
          "internalType": "uint256",
          "name": "",
          "type": "uint256"
        }
      ],
      "stateMutability": "view",
      "type": "function"
    }
  ],
  "bytecode": "0x60806040523480156200001157600080fd5b5060405162003e9638038062003e96833981810160405281019062000037919062000271565b6040518060400160405280600d81526020017f426f72726f77596f7572436172000000000000000000000000000000000000008152506040518060400160405280600381526020017f42594300000000000000000000000000000000000000000000000000000000008152508160009081620000b491906200051d565b508060019081620000c691906200051d565b505050620000e9620000dd6200013960201b60201c565b6200014160201b60201c565b80600a60006101000a81548173ffffffffffffffffffffffffffffffffffffffff021916908373ffffffffffffffffffffffffffffffffffffffff16021790555060006009819055505062000604565b600033905090565b6000600660009054906101000a900473ffffffffffffffffffffffffffffffffffffffff16905081600660006101000a81548173ffffffffffffffffffffffffffffffffffffffff021916908373ffffffffffffffffffffffffffffffffffffffff1602179055508173ffffffffffffffffffffffffffffffffffffffff168173ffffffffffffffffffffffffffffffffffffffff167f8be0079c531659141344cd1fd0a4f28419497f9722a3daafe3b4186f6b6457e060405160405180910390a35050565b600080fd5b600073ffffffffffffffffffffffffffffffffffffffff82169050919050565b600062000239826200020c565b9050919050565b6200024b816200022c565b81146200025757600080fd5b50565b6000815190506200026b8162000240565b92915050565b6000602082840312156200028a576200028962000207565b5b60006200029a848285016200025a565b91505092915050565b600081519050919050565b7f4e487b7100000000000000000000000000000000000000000000000000000000600052604160045260246000fd5b7f4e487b7100000000000000000000000000000000000000000000000000000000600052602260045260246000fd5b600060028204905060018216806200032557607f821691505b6020821081036200033b576200033a620002dd565b5b50919050565b60008190508160005260206000209050919050565b60006020601f8301049050919050565b600082821b905092915050565b600060088302620003a57fffffffffffffffffffffffffffffffffffffffffffffffffffffffffffffffff8262000366565b620003b1868362000366565b95508019841693508086168417925050509392505050565b6000819050919050565b6000819050919050565b6000620003fe620003f8620003f284620003c9565b620003d3565b620003c9565b9050919050565b6000819050919050565b6200041a83620003dd565b62000432620004298262000405565b84845462000373565b825550505050565b600090565b620004496200043a565b620004568184846200040f565b505050565b5b818110156200047e57620004726000826200043f565b6001810190506200045c565b5050565b601f821115620004cd57620004978162000341565b620004a28462000356565b81016020851015620004b2578190505b620004ca620004c18562000356565b8301826200045b565b50505b505050565b600082821c905092915050565b6000620004f260001984600802620004d2565b1980831691505092915050565b60006200050d8383620004df565b9150826002028217905092915050565b6200052882620002a3565b67ffffffffffffffff811115620005445762000543620002ae565b5b6200055082546200030c565b6200055d82828562000482565b600060209050601f83116001811462000595576000841562000580578287015190505b6200058c8582620004ff565b865550620005fc565b601f198416620005a58662000341565b60005b82811015620005cf57848901518255600182019150602085019450602081019050620005a8565b86831015620005ef5784890151620005eb601f891682620004df565b8355505b6001600288020188555050505b505050505050565b61388280620006146000396000f3fe608060405234801561001057600080fd5b50600436106101735760003560e01c8063715018a6116100de578063c87b56dd11610097578063e985e9c511610071578063e985e9c51461043a578063f2fde38b1461046a578063f7746e3614610486578063fc0c546a146104b857610173565b8063c87b56dd146103bc578063d01af8bc146103ec578063e865af041461041e57610173565b8063715018a6146103205780638da5cb5b1461032a57806395d89b4114610348578063a22cb46514610366578063a5adf8ea14610382578063b88d4fde146103a057610173565b8063318abd1611610130578063318abd161461024c57806342842e0e1461027c578063433b8046146102985780636352211e146102b65780636bfe70eb146102e657806370a08231146102f057610173565b806301ffc9a71461017857806306fdde03146101a8578063081812fc146101c6578063095ea7b3146101f6578063214e563c1461021257806323b872dd14610230575b600080fd5b610192600480360381019061018d91906124f0565b6104d6565b60405161019f9190612538565b60405180910390f35b6101b06105b8565b6040516101bd91906125e3565b60405180910390f35b6101e060048036038101906101db919061263b565b61064a565b6040516101ed91906126a9565b60405180910390f35b610210600480360381019061020b91906126f0565b610690565b005b61021a6107a7565b604051610227919061273f565b60405180910390f35b61024a6004803603810190610245919061275a565b6107ad565b005b610266600480360381019061026191906126f0565b61080d565b604051610273919061273f565b60405180910390f35b6102966004803603810190610291919061275a565b61083e565b005b6102a061085e565b6040516102ad919061286b565b60405180910390f35b6102d060048036038101906102cb919061263b565b610a19565b6040516102dd91906126a9565b60405180910390f35b6102ee610a9f565b005b61030a6004803603810190610305919061288d565b610c6d565b604051610317919061273f565b60405180910390f35b610328610d24565b005b610332610d38565b60405161033f91906126a9565b60405180910390f35b610350610d62565b60405161035d91906125e3565b60405180910390f35b610380600480360381019061037b91906128e6565b610df4565b005b61038a610e0a565b604051610397919061286b565b60405180910390f35b6103ba60048036038101906103b59190612a5b565b610e9f565b005b6103d660048036038101906103d1919061263b565b610f01565b6040516103e391906125e3565b60405180910390f35b6104066004803603810190610401919061263b565b610f69565b60405161041593929190612ade565b60405180910390f35b61043860048036038101906104339190612b15565b611058565b005b610454600480360381019061044f9190612b55565b6113b0565b6040516104619190612538565b60405180910390f35b610484600480360381019061047f919061288d565b611444565b005b6104a0600480360381019061049b919061263b565b6114c7565b6040516104af93929190612ade565b60405180910390f35b6104c0611531565b6040516104cd9190612bf4565b60405180910390f35b60007f80ac58cd000000000000000000000000000000000000000000000000000000007bffffffffffffffffffffffffffffffffffffffffffffffffffffffff1916827bffffffffffffffffffffffffffffffffffffffffffffffffffffffff191614806105a157507f5b5e139f000000000000000000000000000000000000000000000000000000007bffffffffffffffffffffffffffffffffffffffffffffffffffffffff1916827bffffffffffffffffffffffffffffffffffffffffffffffffffffffff1916145b806105b157506105b082611557565b5b9050919050565b6060600080546105c790612c3e565b80601f01602080910402602001604051908101604052809291908181526020018280546105f390612c3e565b80156106405780601f1061061557610100808354040283529160200191610640565b820191906000526020600020905b81548152906001019060200180831161062357829003601f168201915b5050505050905090565b6000610655826115c1565b6004600083815260200190815260200160002060009054906101000a900473ffffffffffffffffffffffffffffffffffffffff169050919050565b600061069b82610a19565b90508073ffffffffffffffffffffffffffffffffffffffff168373ffffffffffffffffffffffffffffffffffffffff160361070b576040517f08c379a000000000000000000000000000000000000000000000000000000000815260040161070290612ce1565b60405180910390fd5b8073ffffffffffffffffffffffffffffffffffffffff1661072a61160c565b73ffffffffffffffffffffffffffffffffffffffff16148061075957506107588161075361160c565b6113b0565b5b610798576040517f08c379a000000000000000000000000000000000000000000000000000000000815260040161078f90612d73565b60405180910390fd5b6107a28383611614565b505050565b60095481565b6107be6107b861160c565b826116cd565b6107fd576040517f08c379a00000000000000000000000000000000000000000000000000000000081526004016107f490612e05565b60405180910390fd5b610808838383611762565b505050565b6007602052816000526040600020818154811061082957600080fd5b90600052602060002001600091509150505481565b61085983838360405180602001604052806000815250610e9f565b505050565b6060600060095467ffffffffffffffff81111561087e5761087d612930565b5b6040519080825280602002602001820160405280156108ac5781602001602082028036833780820191505090505b5090506000805b60095481101561096957600073ffffffffffffffffffffffffffffffffffffffff166008600083815260200190815260200160002060010160009054906101000a900473ffffffffffffffffffffffffffffffffffffffff1673ffffffffffffffffffffffffffffffffffffffff1603610956578083838151811061093b5761093a612e25565b5b602002602001018181525050818061095290612e83565b9250505b808061096190612e83565b9150506108b3565b5060008167ffffffffffffffff81111561098657610985612930565b5b6040519080825280602002602001820160405280156109b45781602001602082028036833780820191505090505b50905060005b82811015610a0f578381815181106109d5576109d4612e25565b5b60200260200101518282815181106109f0576109ef612e25565b5b6020026020010181815250508080610a0790612e83565b9150506109ba565b5080935050505090565b600080610a2583611a5b565b9050600073ffffffffffffffffffffffffffffffffffffffff168173ffffffffffffffffffffffffffffffffffffffff1603610a96576040517f08c379a0000000000000000000000000000000000000000000000000000000008152600401610a8d90612f17565b60405180910390fd5b80915050919050565b60ff60095410610ae4576040517f08c379a0000000000000000000000000000000000000000000000000000000008152600401610adb90612f83565b60405180910390fd5b60006009549050610af53382611a98565b60405180606001604052803373ffffffffffffffffffffffffffffffffffffffff168152602001600073ffffffffffffffffffffffffffffffffffffffff16815260200160008152506008600083815260200190815260200160002060008201518160000160006101000a81548173ffffffffffffffffffffffffffffffffffffffff021916908373ffffffffffffffffffffffffffffffffffffffff16021790555060208201518160010160006101000a81548173ffffffffffffffffffffffffffffffffffffffff021916908373ffffffffffffffffffffffffffffffffffffffff1602179055506040820151816002015590505060096000815480929190610bff90612e83565b9190505550600760003373ffffffffffffffffffffffffffffffffffffffff1673ffffffffffffffffffffffffffffffffffffffff16815260200190815260200160002081908060018154018082558091505060019003906000526020600020016000909190919091505550565b60008073ffffffffffffffffffffffffffffffffffffffff168273ffffffffffffffffffffffffffffffffffffffff1603610cdd576040517f08c379a0000000000000000000000000000000000000000000000000000000008152600401610cd490613015565b60405180910390fd5b600360008373ffffffffffffffffffffffffffffffffffffffff1673ffffffffffffffffffffffffffffffffffffffff168152602001908152602001600020549050919050565b610d2c611ab6565b610d366000611b34565b565b6000600660009054906101000a900473ffffffffffffffffffffffffffffffffffffffff16905090565b606060018054610d7190612c3e565b80601f0160208091040260200160405190810160405280929190818152602001828054610d9d90612c3e565b8015610dea5780601f10610dbf57610100808354040283529160200191610dea565b820191906000526020600020905b815481529060010190602001808311610dcd57829003601f168201915b5050505050905090565b610e06610dff61160c565b8383611bfa565b5050565b6060600760003373ffffffffffffffffffffffffffffffffffffffff1673ffffffffffffffffffffffffffffffffffffffff168152602001908152602001600020805480602002602001604051908101604052809291908181526020018280548015610e9557602002820191906000526020600020905b815481526020019060010190808311610e81575b5050505050905090565b610eb0610eaa61160c565b836116cd565b610eef576040517f08c379a0000000000000000000000000000000000000000000000000000000008152600401610ee690612e05565b60405180910390fd5b610efb84848484611d66565b50505050565b6060610f0c826115c1565b6000610f16611dc2565b90506000815111610f365760405180602001604052806000815250610f61565b80610f4084611dd9565b604051602001610f51929190613071565b6040516020818303038152906040525b915050919050565b60008060008073ffffffffffffffffffffffffffffffffffffffff16610f8e85610a19565b73ffffffffffffffffffffffffffffffffffffffff1603610fe4576040517f08c379a0000000000000000000000000000000000000000000000000000000008152600401610fdb906130e1565b60405180910390fd5b60006008600086815260200190815260200160002090508060000160009054906101000a900473ffffffffffffffffffffffffffffffffffffffff168160010160009054906101000a900473ffffffffffffffffffffffffffffffffffffffff168260020154935093509350509193909250565b600073ffffffffffffffffffffffffffffffffffffffff1661107983610a19565b73ffffffffffffffffffffffffffffffffffffffff16036110cf576040517f08c379a00000000000000000000000000000000000000000000000000000000081526004016110c6906130e1565b60405180910390fd5b600073ffffffffffffffffffffffffffffffffffffffff166008600084815260200190815260200160002060010160009054906101000a900473ffffffffffffffffffffffffffffffffffffffff1673ffffffffffffffffffffffffffffffffffffffff1614611174576040517f08c379a000000000000000000000000000000000000000000000000000000000815260040161116b9061314d565b60405180910390fd5b3373ffffffffffffffffffffffffffffffffffffffff1661119483610a19565b73ffffffffffffffffffffffffffffffffffffffff16036111ea576040517f08c379a00000000000000000000000000000000000000000000000000000000081526004016111e1906131b9565b60405180910390fd5b60006111f583610a19565b9050600061120283611ea7565b9050600a60009054906101000a900473ffffffffffffffffffffffffffffffffffffffff1673ffffffffffffffffffffffffffffffffffffffff166323b872dd3384846040518463ffffffff1660e01b815260040161126393929190612ade565b6020604051808303816000875af1158015611282573d6000803e3d6000fd5b505050506040513d601f19601f820116820180604052508101906112a691906131ee565b6112e5576040517f08c379a00000000000000000000000000000000000000000000000000000000081526004016112dc90613267565b60405180910390fd5b336008600086815260200190815260200160002060010160006101000a81548173ffffffffffffffffffffffffffffffffffffffff021916908373ffffffffffffffffffffffffffffffffffffffff160217905550610e10836113489190613287565b4261135391906132c9565b60086000868152602001908152602001600020600201819055507f8879d78706834dc00d82232992f71250fab6a1f70b08260968253950083d88cd843342866040516113a294939291906132fd565b60405180910390a150505050565b6000600560008473ffffffffffffffffffffffffffffffffffffffff1673ffffffffffffffffffffffffffffffffffffffff16815260200190815260200160002060008373ffffffffffffffffffffffffffffffffffffffff1673ffffffffffffffffffffffffffffffffffffffff16815260200190815260200160002060009054906101000a900460ff16905092915050565b61144c611ab6565b600073ffffffffffffffffffffffffffffffffffffffff168173ffffffffffffffffffffffffffffffffffffffff16036114bb576040517f08c379a00000000000000000000000000000000000000000000000000000000081526004016114b2906133b4565b60405180910390fd5b6114c481611b34565b50565b60086020528060005260406000206000915090508060000160009054906101000a900473ffffffffffffffffffffffffffffffffffffffff16908060010160009054906101000a900473ffffffffffffffffffffffffffffffffffffffff16908060020154905083565b600a60009054906101000a900473ffffffffffffffffffffffffffffffffffffffff1681565b60007f01ffc9a7000000000000000000000000000000000000000000000000000000007bffffffffffffffffffffffffffffffffffffffffffffffffffffffff1916827bffffffffffffffffffffffffffffffffffffffffffffffffffffffff1916149050919050565b6115ca81611ec2565b611609576040517f08c379a000000000000000000000000000000000000000000000000000000000815260040161160090612f17565b60405180910390fd5b50565b600033905090565b816004600083815260200190815260200160002060006101000a81548173ffffffffffffffffffffffffffffffffffffffff021916908373ffffffffffffffffffffffffffffffffffffffff160217905550808273ffffffffffffffffffffffffffffffffffffffff1661168783610a19565b73ffffffffffffffffffffffffffffffffffffffff167f8c5be1e5ebec7d5bd14f71427d1e84f3dd0314c0f7b2291e5b200ac8c7c3b92560405160405180910390a45050565b6000806116d983610a19565b90508073ffffffffffffffffffffffffffffffffffffffff168473ffffffffffffffffffffffffffffffffffffffff16148061171b575061171a81856113b0565b5b8061175957508373ffffffffffffffffffffffffffffffffffffffff166117418461064a565b73ffffffffffffffffffffffffffffffffffffffff16145b91505092915050565b8273ffffffffffffffffffffffffffffffffffffffff1661178282610a19565b73ffffffffffffffffffffffffffffffffffffffff16146117d8576040517f08c379a00000000000000000000000000000000000000000000000000000000081526004016117cf90613446565b60405180910390fd5b600073ffffffffffffffffffffffffffffffffffffffff168273ffffffffffffffffffffffffffffffffffffffff1603611847576040517f08c379a000000000000000000000000000000000000000000000000000000000815260040161183e906134d8565b60405180910390fd5b6118548383836001611f03565b8273ffffffffffffffffffffffffffffffffffffffff1661187482610a19565b73ffffffffffffffffffffffffffffffffffffffff16146118ca576040517f08c379a00000000000000000000000000000000000000000000000000000000081526004016118c190613446565b60405180910390fd5b6004600082815260200190815260200160002060006101000a81549073ffffffffffffffffffffffffffffffffffffffff02191690556001600360008573ffffffffffffffffffffffffffffffffffffffff1673ffffffffffffffffffffffffffffffffffffffff168152602001908152602001600020600082825403925050819055506001600360008473ffffffffffffffffffffffffffffffffffffffff1673ffffffffffffffffffffffffffffffffffffffff16815260200190815260200160002060008282540192505081905550816002600083815260200190815260200160002060006101000a81548173ffffffffffffffffffffffffffffffffffffffff021916908373ffffffffffffffffffffffffffffffffffffffff160217905550808273ffffffffffffffffffffffffffffffffffffffff168473ffffffffffffffffffffffffffffffffffffffff167fddf252ad1be2c89b69c2b068fc378daa952ba7f163c4a11628f55a4df523b3ef60405160405180910390a4611a568383836001611f09565b505050565b60006002600083815260200190815260200160002060009054906101000a900473ffffffffffffffffffffffffffffffffffffffff169050919050565b611ab2828260405180602001604052806000815250611f0f565b5050565b611abe61160c565b73ffffffffffffffffffffffffffffffffffffffff16611adc610d38565b73ffffffffffffffffffffffffffffffffffffffff1614611b32576040517f08c379a0000000000000000000000000000000000000000000000000000000008152600401611b2990613544565b60405180910390fd5b565b6000600660009054906101000a900473ffffffffffffffffffffffffffffffffffffffff16905081600660006101000a81548173ffffffffffffffffffffffffffffffffffffffff021916908373ffffffffffffffffffffffffffffffffffffffff1602179055508173ffffffffffffffffffffffffffffffffffffffff168173ffffffffffffffffffffffffffffffffffffffff167f8be0079c531659141344cd1fd0a4f28419497f9722a3daafe3b4186f6b6457e060405160405180910390a35050565b8173ffffffffffffffffffffffffffffffffffffffff168373ffffffffffffffffffffffffffffffffffffffff1603611c68576040517f08c379a0000000000000000000000000000000000000000000000000000000008152600401611c5f906135b0565b60405180910390fd5b80600560008573ffffffffffffffffffffffffffffffffffffffff1673ffffffffffffffffffffffffffffffffffffffff16815260200190815260200160002060008473ffffffffffffffffffffffffffffffffffffffff1673ffffffffffffffffffffffffffffffffffffffff16815260200190815260200160002060006101000a81548160ff0219169083151502179055508173ffffffffffffffffffffffffffffffffffffffff168373ffffffffffffffffffffffffffffffffffffffff167f17307eab39ab6107e8899845ad3d59bd9653f200f220920489ca2b5937696c3183604051611d599190612538565b60405180910390a3505050565b611d71848484611762565b611d7d84848484611f6a565b611dbc576040517f08c379a0000000000000000000000000000000000000000000000000000000008152600401611db390613642565b60405180910390fd5b50505050565b606060405180602001604052806000815250905090565b606060006001611de8846120f1565b01905060008167ffffffffffffffff811115611e0757611e06612930565b5b6040519080825280601f01601f191660200182016040528015611e395781602001600182028036833780820191505090505b509050600082602001820190505b600115611e9c578080600190039150507f3031323334353637383961626364656600000000000000000000000000000000600a86061a8153600a8581611e9057611e8f613662565b5b04945060008503611e47575b819350505050919050565b600080600a90508281611eba9190613287565b915050919050565b60008073ffffffffffffffffffffffffffffffffffffffff16611ee483611a5b565b73ffffffffffffffffffffffffffffffffffffffff1614159050919050565b50505050565b50505050565b611f198383612244565b611f266000848484611f6a565b611f65576040517f08c379a0000000000000000000000000000000000000000000000000000000008152600401611f5c90613642565b60405180910390fd5b505050565b6000611f8b8473ffffffffffffffffffffffffffffffffffffffff16612461565b156120e4578373ffffffffffffffffffffffffffffffffffffffff1663150b7a02611fb461160c565b8786866040518563ffffffff1660e01b8152600401611fd694939291906136e6565b6020604051808303816000875af192505050801561201257506040513d601f19601f8201168201806040525081019061200f9190613747565b60015b612094573d8060008114612042576040519150601f19603f3d011682016040523d82523d6000602084013e612047565b606091505b50600081510361208c576040517f08c379a000000000000000000000000000000000000000000000000000000000815260040161208390613642565b60405180910390fd5b805181602001fd5b63150b7a0260e01b7bffffffffffffffffffffffffffffffffffffffffffffffffffffffff1916817bffffffffffffffffffffffffffffffffffffffffffffffffffffffff1916149150506120e9565b600190505b949350505050565b600080600090507a184f03e93ff9f4daa797ed6e38ed64bf6a1f010000000000000000831061214f577a184f03e93ff9f4daa797ed6e38ed64bf6a1f010000000000000000838161214557612144613662565b5b0492506040810190505b6d04ee2d6d415b85acef8100000000831061218c576d04ee2d6d415b85acef8100000000838161218257612181613662565b5b0492506020810190505b662386f26fc1000083106121bb57662386f26fc1000083816121b1576121b0613662565b5b0492506010810190505b6305f5e10083106121e4576305f5e10083816121da576121d9613662565b5b0492506008810190505b61271083106122095761271083816121ff576121fe613662565b5b0492506004810190505b6064831061222c576064838161222257612221613662565b5b0492506002810190505b600a831061223b576001810190505b80915050919050565b600073ffffffffffffffffffffffffffffffffffffffff168273ffffffffffffffffffffffffffffffffffffffff16036122b3576040517f08c379a00000000000000000000000000000000000000000000000000000000081526004016122aa906137c0565b60405180910390fd5b6122bc81611ec2565b156122fc576040517f08c379a00000000000000000000000000000000000000000000000000000000081526004016122f39061382c565b60405180910390fd5b61230a600083836001611f03565b61231381611ec2565b15612353576040517f08c379a000000000000000000000000000000000000000000000000000000000815260040161234a9061382c565b60405180910390fd5b6001600360008473ffffffffffffffffffffffffffffffffffffffff1673ffffffffffffffffffffffffffffffffffffffff16815260200190815260200160002060008282540192505081905550816002600083815260200190815260200160002060006101000a81548173ffffffffffffffffffffffffffffffffffffffff021916908373ffffffffffffffffffffffffffffffffffffffff160217905550808273ffffffffffffffffffffffffffffffffffffffff16600073ffffffffffffffffffffffffffffffffffffffff167fddf252ad1be2c89b69c2b068fc378daa952ba7f163c4a11628f55a4df523b3ef60405160405180910390a461245d600083836001611f09565b5050565b6000808273ffffffffffffffffffffffffffffffffffffffff163b119050919050565b6000604051905090565b600080fd5b600080fd5b60007fffffffff0000000000000000000000000000000000000000000000000000000082169050919050565b6124cd81612498565b81146124d857600080fd5b50565b6000813590506124ea816124c4565b92915050565b6000602082840312156125065761250561248e565b5b6000612514848285016124db565b91505092915050565b60008115159050919050565b6125328161251d565b82525050565b600060208201905061254d6000830184612529565b92915050565b600081519050919050565b600082825260208201905092915050565b60005b8381101561258d578082015181840152602081019050612572565b60008484015250505050565b6000601f19601f8301169050919050565b60006125b582612553565b6125bf818561255e565b93506125cf81856020860161256f565b6125d881612599565b840191505092915050565b600060208201905081810360008301526125fd81846125aa565b905092915050565b6000819050919050565b61261881612605565b811461262357600080fd5b50565b6000813590506126358161260f565b92915050565b6000602082840312156126515761265061248e565b5b600061265f84828501612626565b91505092915050565b600073ffffffffffffffffffffffffffffffffffffffff82169050919050565b600061269382612668565b9050919050565b6126a381612688565b82525050565b60006020820190506126be600083018461269a565b92915050565b6126cd81612688565b81146126d857600080fd5b50565b6000813590506126ea816126c4565b92915050565b600080604083850312156127075761270661248e565b5b6000612715858286016126db565b925050602061272685828601612626565b9150509250929050565b61273981612605565b82525050565b60006020820190506127546000830184612730565b92915050565b6000806000606084860312156127735761277261248e565b5b6000612781868287016126db565b9350506020612792868287016126db565b92505060406127a386828701612626565b9150509250925092565b600081519050919050565b600082825260208201905092915050565b6000819050602082019050919050565b6127e281612605565b82525050565b60006127f483836127d9565b60208301905092915050565b6000602082019050919050565b6000612818826127ad565b61282281856127b8565b935061282d836127c9565b8060005b8381101561285e57815161284588826127e8565b975061285083612800565b925050600181019050612831565b5085935050505092915050565b60006020820190508181036000830152612885818461280d565b905092915050565b6000602082840312156128a3576128a261248e565b5b60006128b1848285016126db565b91505092915050565b6128c38161251d565b81146128ce57600080fd5b50565b6000813590506128e0816128ba565b92915050565b600080604083850312156128fd576128fc61248e565b5b600061290b858286016126db565b925050602061291c858286016128d1565b9150509250929050565b600080fd5b600080fd5b7f4e487b7100000000000000000000000000000000000000000000000000000000600052604160045260246000fd5b61296882612599565b810181811067ffffffffffffffff8211171561298757612986612930565b5b80604052505050565b600061299a612484565b90506129a6828261295f565b919050565b600067ffffffffffffffff8211156129c6576129c5612930565b5b6129cf82612599565b9050602081019050919050565b82818337600083830152505050565b60006129fe6129f9846129ab565b612990565b905082815260208101848484011115612a1a57612a1961292b565b5b612a258482856129dc565b509392505050565b600082601f830112612a4257612a41612926565b5b8135612a528482602086016129eb565b91505092915050565b60008060008060808587031215612a7557612a7461248e565b5b6000612a83878288016126db565b9450506020612a94878288016126db565b9350506040612aa587828801612626565b925050606085013567ffffffffffffffff811115612ac657612ac5612493565b5b612ad287828801612a2d565b91505092959194509250565b6000606082019050612af3600083018661269a565b612b00602083018561269a565b612b0d6040830184612730565b949350505050565b60008060408385031215612b2c57612b2b61248e565b5b6000612b3a85828601612626565b9250506020612b4b85828601612626565b9150509250929050565b60008060408385031215612b6c57612b6b61248e565b5b6000612b7a858286016126db565b9250506020612b8b858286016126db565b9150509250929050565b6000819050919050565b6000612bba612bb5612bb084612668565b612b95565b612668565b9050919050565b6000612bcc82612b9f565b9050919050565b6000612bde82612bc1565b9050919050565b612bee81612bd3565b82525050565b6000602082019050612c096000830184612be5565b92915050565b7f4e487b7100000000000000000000000000000000000000000000000000000000600052602260045260246000fd5b60006002820490506001821680612c5657607f821691505b602082108103612c6957612c68612c0f565b5b50919050565b7f4552433732313a20617070726f76616c20746f2063757272656e74206f776e6560008201527f7200000000000000000000000000000000000000000000000000000000000000602082015250565b6000612ccb60218361255e565b9150612cd682612c6f565b604082019050919050565b60006020820190508181036000830152612cfa81612cbe565b9050919050565b7f4552433732313a20617070726f76652063616c6c6572206973206e6f7420746f60008201527f6b656e206f776e6572206f7220617070726f76656420666f7220616c6c000000602082015250565b6000612d5d603d8361255e565b9150612d6882612d01565b604082019050919050565b60006020820190508181036000830152612d8c81612d50565b9050919050565b7f4552433732313a2063616c6c6572206973206e6f7420746f6b656e206f776e6560008201527f72206f7220617070726f76656400000000000000000000000000000000000000602082015250565b6000612def602d8361255e565b9150612dfa82612d93565b604082019050919050565b60006020820190508181036000830152612e1e81612de2565b9050919050565b7f4e487b7100000000000000000000000000000000000000000000000000000000600052603260045260246000fd5b7f4e487b7100000000000000000000000000000000000000000000000000000000600052601160045260246000fd5b6000612e8e82612605565b91507fffffffffffffffffffffffffffffffffffffffffffffffffffffffffffffffff8203612ec057612ebf612e54565b5b600182019050919050565b7f4552433732313a20696e76616c696420746f6b656e2049440000000000000000600082015250565b6000612f0160188361255e565b9150612f0c82612ecb565b602082019050919050565b60006020820190508181036000830152612f3081612ef4565b9050919050565b7f4d6178696d756d20636172732072656163686564000000000000000000000000600082015250565b6000612f6d60148361255e565b9150612f7882612f37565b602082019050919050565b60006020820190508181036000830152612f9c81612f60565b9050919050565b7f4552433732313a2061646472657373207a65726f206973206e6f74206120766160008201527f6c6964206f776e65720000000000000000000000000000000000000000000000602082015250565b6000612fff60298361255e565b915061300a82612fa3565b604082019050919050565b6000602082019050818103600083015261302e81612ff2565b9050919050565b600081905092915050565b600061304b82612553565b6130558185613035565b935061306581856020860161256f565b80840191505092915050565b600061307d8285613040565b91506130898284613040565b91508190509392505050565b7f43617220646f6573206e6f742065786973740000000000000000000000000000600082015250565b60006130cb60128361255e565b91506130d682613095565b602082019050919050565b600060208201905081810360008301526130fa816130be565b9050919050565b7f43617220697320616c726561647920626f72726f776564000000000000000000600082015250565b600061313760178361255e565b915061314282613101565b602082019050919050565b600060208201905081810360008301526131668161312a565b9050919050565b7f596f752063616e6e6f7420626f72726f7720796f7572206f776e206361720000600082015250565b60006131a3601e8361255e565b91506131ae8261316d565b602082019050919050565b600060208201905081810360008301526131d281613196565b9050919050565b6000815190506131e8816128ba565b92915050565b6000602082840312156132045761320361248e565b5b6000613212848285016131d9565b91505092915050565b7f5061796d656e74206661696c6564000000000000000000000000000000000000600082015250565b6000613251600e8361255e565b915061325c8261321b565b602082019050919050565b6000602082019050818103600083015261328081613244565b9050919050565b600061329282612605565b915061329d83612605565b92508282026132ab81612605565b915082820484148315176132c2576132c1612e54565b5b5092915050565b60006132d482612605565b91506132df83612605565b92508282019050808211156132f7576132f6612e54565b5b92915050565b60006080820190506133126000830187612730565b61331f602083018661269a565b61332c6040830185612730565b6133396060830184612730565b95945050505050565b7f4f776e61626c653a206e6577206f776e657220697320746865207a65726f206160008201527f6464726573730000000000000000000000000000000000000000000000000000602082015250565b600061339e60268361255e565b91506133a982613342565b604082019050919050565b600060208201905081810360008301526133cd81613391565b9050919050565b7f4552433732313a207472616e736665722066726f6d20696e636f72726563742060008201527f6f776e6572000000000000000000000000000000000000000000000000000000602082015250565b600061343060258361255e565b915061343b826133d4565b604082019050919050565b6000602082019050818103600083015261345f81613423565b9050919050565b7f4552433732313a207472616e7366657220746f20746865207a65726f2061646460008201527f7265737300000000000000000000000000000000000000000000000000000000602082015250565b60006134c260248361255e565b91506134cd82613466565b604082019050919050565b600060208201905081810360008301526134f1816134b5565b9050919050565b7f4f776e61626c653a2063616c6c6572206973206e6f7420746865206f776e6572600082015250565b600061352e60208361255e565b9150613539826134f8565b602082019050919050565b6000602082019050818103600083015261355d81613521565b9050919050565b7f4552433732313a20617070726f766520746f2063616c6c657200000000000000600082015250565b600061359a60198361255e565b91506135a582613564565b602082019050919050565b600060208201905081810360008301526135c98161358d565b9050919050565b7f4552433732313a207472616e7366657220746f206e6f6e20455243373231526560008201527f63656976657220696d706c656d656e7465720000000000000000000000000000602082015250565b600061362c60328361255e565b9150613637826135d0565b604082019050919050565b6000602082019050818103600083015261365b8161361f565b9050919050565b7f4e487b7100000000000000000000000000000000000000000000000000000000600052601260045260246000fd5b600081519050919050565b600082825260208201905092915050565b60006136b882613691565b6136c2818561369c565b93506136d281856020860161256f565b6136db81612599565b840191505092915050565b60006080820190506136fb600083018761269a565b613708602083018661269a565b6137156040830185612730565b818103606083015261372781846136ad565b905095945050505050565b600081519050613741816124c4565b92915050565b60006020828403121561375d5761375c61248e565b5b600061376b84828501613732565b91505092915050565b7f4552433732313a206d696e7420746f20746865207a65726f2061646472657373600082015250565b60006137aa60208361255e565b91506137b582613774565b602082019050919050565b600060208201905081810360008301526137d98161379d565b9050919050565b7f4552433732313a20746f6b656e20616c7265616479206d696e74656400000000600082015250565b6000613816601c8361255e565b9150613821826137e0565b602082019050919050565b6000602082019050818103600083015261384581613809565b905091905056fea26469706673582212202fd3cd90fece1998f8fa3c6c9b93fe8a7c0aa90cebc2d876e383220c6104532364736f6c63430008130033",
  "linkReferences": {},
  "deployedLinkReferences": {}
}